:020000040800F2
:1000000000000120D90B0008290C0008290C000869
:10001000290C0008290C0008290C00080000000029
:10002000000000000000000000000000290C000893
:10003000290C000800000000290C0008290C000809
:10004000290C0008290C0008290C0008290C0008BC
:10005000290C0008290C0008290C0008290C0008AC
:10006000290C0008290C0008290C0008290C00089C
:10007000290C0008290C0008290C0008290C00088C
:10008000290C0008290C0008290C000800000000B9
:10009000000000000000000000000000290C000823
:1000A000290C0008290C0008290C0008290C00085C
:1000B000290C0008290C0008290C0008290C00084C
:1000C000290C0008290C0008290C0008290C00083C
:1000D000290C0008290C0008290C00080000000069
:1000E000290C0008290C0008290C00080000000059
:1000F000000000000000000000000000290C0008C3
:1001000000000000290C0008290C0008290C000838
:1001100000000000000000000000000000000000DF
:10012000290C0008290C0008290C0008290C0008DB
:10013000290C000800000000000000000000000082
:10014000000000000000000000000000290C000872
:100150009D070008290C0008290C0008290C00083C
:10016000290C0008290C0008000000000000000015
:10017000000000000000000000000000000000007F
:1001800000000000290C0008000000000000000032
:04019000290C00082E
:1001A00010B5054C237833B9044B13B10448AFF3B1
:1001B00000800123237010BD6C00002000000000AF
:1001C000EC14000808B5034B1BB103490348AFF317
:1001D000008008BD0000000070000020EC14000842
:1001E00001F0FF01102A2BDB10F0070F08D010F8E8
:1001F000013B013A8B422DD010F0070F42B3F6D1EC
:10020000F0B441EA012141EA014122F007047FF004
:1002100000070023F0E80256083C85EA010586EA5B
:10022000010685FA47F5A3FA87F586FA47F6A5FA97
:1002300087F68EB9EED1F0BC01F0FF0102F00702A3
:1002400032B110F8013B013A83EA010313B1F8D14E
:100250000020704701387047002D06BF354603382F
:10026000073815F0010F07D1013015F4807F02BF68
:10027000013015F4C03F0130F0BC0138704700BFB9
:1002800090B482B000AF78605B4B1B68FF229A602D
:10029000594B1B68FF22DA607B681B681A46564B75
:1002A0001A60554B18687B681B791A467B689968F9
:1002B000013213465B001344DB00034419604E4BCC
:1002C00019687B681B7918467B68DA6803465B000F
:1002D0000344DB000B441C331A607B68587C464B9C
:1002E0001A687B681B7919460B465B000B44DB00E0
:1002F0001344143318607B685B795A067B681B7C57
:100300001B041A437B681B7D9B011A437B689B7C03
:100310001B09DBB25B031A437B689B7C1B09DBB2C6
:10032000DB02134343F420027B68DB7C5B0142EA7F
:100330000300314B1A687B681B7919460B465B003A
:100340000B44DB001344103318607B685B7DFF2B8C
:100350001DD0294B1A687B681B7919460B465B0038
:100360000B44DB00134410331B687A68527D920003
:100370001446214A11687A681279104643EA040249
:1003800003465B000344DB000B4410331A607B68B8
:100390005B7C012B2BD9184B1A687B681B7919469B
:1003A0000B465B000B44DB00134410331B68124AFE
:1003B00011687A681279104643F4C06203465B0004
:1003C0000344DB000B4410331A607B689B7C03F012
:1003D0000B0343F00400084B1A687B681B7919462D
:1003E0000B465B000B44DB0013442433186000BF52
:1003F0000837BD4690BC70479800002080B582B099
:1004000000AF0346FB71FB79152B20D100210B2097
:1004100000F07CF900210C2000F078F900210D207B
:1004200000F074F900210E2000F070F900210F2077
:1004300000F06CF90021102000F068F90021112073
:1004400000F064F901212F2000F060F91FE0012184
:10045000382000F05BF90121392000F057F9012123
:100460003A2000F053F901213B2000F04FF901211F
:100470003C2000F04BF90221442000F047F9022112
:10048000452000F043F90221462000F03FF9FB79B6
:10049000184600F023F900BF0837BD4680BD0000B4
:1004A00080B483B000AF0346FB710E4B1968FA7934
:1004B00013465B001344DB000B4410331B68094AEE
:1004C0001068FA7943F0010113465B001344DB0026
:1004D00003441033196000BF0C37BD465DF8047B40
:1004E000704700BF9800002080B400AF254B1B6808
:1004F0001A69244B1B6822F010021A61214B1B68F9
:100500009A6A204B1B6822F010029A621D4B1B68EE
:100510001A6C1C4B1B6822F010021A64194B1B68E2
:100520009A6D184B1B6822F010029A65154B1B68D8
:100530001A6F144B1B6822F010021A67114B1B68CC
:10054000D3F888200F4B1B6822F01002C3F88820D4
:100550000C4B1B68D3F8A0200A4B1B6822F010023A
:10056000C3F8A020074B1B68D3F8B820054B1B68C5
:1005700022F01002C3F8B82000BFBD465DF8047B2E
:10058000704700BF9800002080B400AF254B1B6867
:100590001A69244B1B6842F010021A61214B1B6838
:1005A0009A6A204B1B6842F010029A621D4B1B682E
:1005B0001A6C1C4B1B6842F010021A64194B1B6822
:1005C0009A6D184B1B6842F010029A65154B1B6818
:1005D0001A6F144B1B6842F010021A67114B1B680C
:1005E000D3F888200F4B1B6842F01002C3F8882014
:1005F0000C4B1B68D3F8A0200A4B1B6842F010027A
:10060000C3F8A020074B1B68D3F8B820054B1B6824
:1006100042F01002C3F8B82000BFBD465DF8047B6D
:10062000704700BF9800002080B483B000AF03463D
:10063000FB7197F90730002B0CDB114B1B681B6813
:10064000FA79012101FA02F21A40FB7922FA03F346
:10065000DBB20FE0FB7903F07F03FB71084B1B68F3
:100660005B68FA79012101FA02F21A40FB7922FA59
:1006700003F3DBB218460C37BD465DF8047B7047C8
:100680009800002080B483B000AF0346FB7197F957
:100690000730002B0CDB104B1B689A68FB7901219B
:1006A00001FA03F319460C4B1B680A439A600DE0EC
:1006B000094B1B68DA68FB7903F07F03012101FA1B
:1006C00003F31946044B1B680A43DA6000BF0C377A
:1006D000BD465DF8047B70479800002080B483B06D
:1006E00000AF0346FB71084B1B68FA79012101FA40
:1006F00002F21146044A0B43136000BF0C37BD469B
:100700005DF8047B704700BF3038024080B483B08E
:1007100000AF03460A46FB711346BB71BB79022B3F
:1007200022D0022B2EDC002B02D0012B0ED029E090
:10073000174B1B68F979BA7952018A1A012101FA1B
:1007400002F21146124A0B4313601BE0114B1B6867
:10075000F979BA7952018A1A012101FA02F2114695
:100760000C4A0B4313600DE00B4B1B68F979BA7907
:1007700052018A1A012101FA02F21146064A0B437C
:10078000136000BF00BF0C37BD465DF8047B7047A7
:1007900000E100E004E100E008E100E080B500AF26
:1007A0008B20FFF741FF0346002B0FD000F0F6F936
:1007B00010220021002000F041F801220021002039
:1007C00000F0CAF88B20FFF75DFF1CE08920FFF7DF
:1007D0002BFF0346002B03D08920FFF753FF12E0C5
:1007E0008A20FFF721FF0346002B0CD010220121A5
:1007F000002000F023F801220121002000F0ACF8D5
:100800008A20FFF73FFF00BF80BD000080B483B0A7
:1008100000AF0346FB71084B1B68FA79012101FA0E
:1008200002F21146044A0B43136000BF0C37BD4669
:100830005DF8047B704700BF3038024080B483B05D
:1008400000AF0346FB710B46BB7113467B71FB790E
:10085000404A52F823301A68BB795B00032101FA41
:1008600003F3DB431846FB793A4951F82330024041
:100870001A60FB79374A52F823301A687B791B09D2
:10088000DBB21946BB795B0001FA03F31846FB792A
:10089000304951F8233002431A607B791B09DBB2DF
:1008A000002B29D1FB792B4A52F823300C331A68DC
:1008B000BB795B00032101FA03F3DB431846FB79A4
:1008C000244951F823300C3302401A60FB79214A45
:1008D00052F823300C331A687B7903F00F01BB798F
:1008E0005B0001FA03F31846FB791A4951F82330EB
:1008F0000C3302431A6026E0FB79164A52F8233083
:1009000004331A68BB79012101FA03F3DB4318466B
:10091000FB79104951F82330043302401A60FB7907
:100920000C4A52F8233004331A687B7903F00F0124
:10093000BB7901FA03F31846FB79064951F82330D5
:10094000043302431A6000BF0C37BD465DF8047BD8
:10095000704700BF0000002080B483B000AF0346A2
:10096000FB710B46BB7113467B717B79002B01D069
:1009700001237B71FB79154A52F8233014331A682E
:10098000BB79012101FA03F3DB431846FB790F49D8
:1009900051F82330143302401A60FB790B4A52F8A5
:1009A000233014331A687979BB7901FA03F31846B6
:1009B000FB79064951F82330143302431A6000BF13
:1009C0000C37BD465DF8047B704700BF0000002077
:1009D00080B400AF054B1B689B09DBB203F0010339
:1009E000DBB21846BD465DF8047B7047004400400A
:1009F00080B400AF054B1B68044A43F4E063136006
:100A000000BFBD465DF8047B704700BF2000024078
:100A100080B400AF134B1B68124A43F400331360D9
:100A2000114B40F283621A60104B1B680F4A43F46B
:100A3000005313600D4B1B680C4A23F400431360F2
:100A40000A4B1B68094A23F480531360074B1B6849
:100A5000064A43F00803136000BFBD465DF8047BFF
:100A6000704700BF40380240084400400C4400403A
:100A700080B582B000AF78600CE07B681A780A4BD2
:100A80001A6000BFFFF7A4FF0346012BFAD17B6871
:100A900001337B607B681B78002BEED100BF00BF69
:100AA0000837BD4680BD00BF0444004080B584B017
:100AB00000AF0346FB80FA8807F10C03064918468D
:100AC00000F0D8F807F10C031846FFF7D1FF00BF7C
:100AD0001037BD4680BD00BF04150008B0B588B012
:100AE00000AF294B3C1D1D460FCD0FC495E80300F8
:100AF00084E803000023FB7708E0FB7FFA7F0132E4
:100B0000D1B2224AD154FB7F0133FB77FB7F632BA9
:100B1000F3D90020FFF77AFE202202210020FFF700
:100B20008DFEFFF765FFFFF773FF1620FFF766FCEA
:100B30003B1D1846FFF7A4FB0520FFF7B1FC00237F
:100B40007B77FFF7D1FC124B1B687B77104B0022A1
:100B50001A60FFF719FD7B7F012BF2D10023BB77D1
:100B60000CE0BB7F0B4AD35C9BB21846FFF79EFF9D
:100B70000948FFF77DFFBB7F0133BB777B7DBA7FE1
:100B80009A42EED3DDE700BF0C15000800010020FB
:100B9000880000209C0000200815000880B400AFE9
:100BA000034B01221A6000BFBD465DF8047B70470D
:100BB0008800002080B400AF064BD3F88830054A87
:100BC00043F47003C2F8883000BFBD465DF8047B73
:100BD000704700BF00ED00E0DFF834D00D480E494B
:100BE0000E4A002302E0D458C4500433C4188C4287
:100BF000F9D30B4A0B4C002301E013600432A242EC
:100C0000FBD3FFF7D7FF00F011F8FFF767FF70473E
:100C100000000120000000206C000020601500088A
:100C20006C00002074010020FEE7000070B50D4D3F
:100C30000D4C641BA4100026A64209D10B4D0C4C90
:100C400000F054FC641BA4100026A64205D170BD20
:100C500055F8043B98470136EEE755F8043B9847B2
:100C60000136F2E758150008581500085815000815
:100C70005C1500080EB400B59CB01DAB0290069048
:100C80006FF00041094807910491094953F8042B7A
:100C900005910068019302A900F068F8029B002208
:100CA0001A701CB05DF804EB03B070470800002018
:100CB0000802FFFF2DE9F0478E689E4282460C46EF
:100CC00090461F4638D88A8912F4906F32D0256832
:100CD0000969A5EB0109656905EB450505EBD575C6
:100CE00001334B446D109D4238BF1D46530531D52D
:100CF000294600F047FB064650B90C23CAF80030DD
:100D0000A38943F04003A3814FF0FF30BDE8F08793
:100D100021694A4600F0BEFAA38923F4906343F0A8
:100D20008003A381266165614E44A5EB0905266019
:100D3000A5603E46BE4200D93E4632462068414646
:100D400000F0B6FAA36822689B1B3244A3602260BD
:100D50000020DBE72A4600F06FFB06460028E1D1C1
:100D60002169504600F0BEFAC7E700002DE9F04FB8
:100D700098468B891B069DB007460D4614460ED536
:100D80000B6963B9402100F0FDFA2860286120B9A1
:100D90000C233B604FF0FF30D1E040236B61002318
:100DA000099320238DF82930CDF80C803023DFF80B
:100DB000A8818DF82A304FF0010923469A4613F88E
:100DC000012B0AB1252AF9D1BAEB040B0BD05B46F3
:100DD000224629463846FFF76DFF013000F0AA8011
:100DE000099A5A4409929AF80030002B00F0A28028
:100DF00000234FF0FF32CDE905230AF1010A0493E5
:100E000007938DF853301A935446052214F8011BAA
:100E10005148FFF7E5F9049AD8B9D00644BF20231A
:100E20008DF85330110744BF2B238DF853309AF8B7
:100E300000302A2B15D0079A544600204FF00A0C98
:100E4000214611F8013B303B092B4ED9B0B1079236
:100E500014E0A0EB080309FA03F313430493A2463A
:100E6000D2E7039B191D1B680391002BBBBF5B429C
:100E700042F0020207930793B8BF049223782E2B07
:100E80000CD163782A2B35D1039B1A1D1B68039262
:100E9000002BB8BF4FF0FF3302340593DFF8C8A032
:100EA000217803225046FFF79BF940B14023A0EB85
:100EB0000A0003FA00F0049B03430134049314F87E
:100EC000011B26488DF828100622FFF789F9002813
:100ED00038D0234B1BBB039B073323F00703083396
:100EE0000393099B3344099367E70CFB02320C46DA
:100EF0000120A5E700230134059319464FF00A0CA1
:100F0000204610F8012B303A092A03D9002BC5D00E
:100F10000591C3E70CFB012104460123F0E703AB75
:100F200000932A460F4B04A93846AFF30080421CB9
:100F30000646D6D1AB895B063FF52CAF09981DB0AC
:100F4000BDE8F08F03AB00932A46064B04A9384650
:100F500000F07AF8EBE700BF241500082E15000812
:100F600000000000B50C00082A1500082DE9F04724
:100F7000164699468A680B69DDF820809342B8BF0F
:100F80001346336091F8432007460C460AB10133FB
:100F900033602368990642BF3368023333602568A3
:100FA00015F0060506D104F1190AE36832689B1AA8
:100FB000AB4226DC94F84320131E226818BF01239D
:100FC00092062BD404F1430249463846C04701300B
:100FD0001ED02368E568326803F00603042B08BFBF
:100FE000AD1AA36822690CBF25EAE5750025934276
:100FF000C4BF9B1AED1800261A34B5421AD100203E
:1010000008E00123524649463846C047013003D123
:101010004FF0FF30BDE8F0870135C6E7E1185A1CF4
:10102000302081F84300224494F8451082F84310A0
:101030000233C7E70123224649463846C0470130FC
:10104000E6D00136D9E700002DE9FF470C4691466E
:10105000277E0C99782F80469A4604F1430207D8E0
:10106000622F0AD8002F00F0D880582F00F0A380FC
:1010700004F1420684F842703AE0A7F16303152BAD
:10108000F6D801A050F823F0E1100008F510000890
:10109000711000087110000871100008711000082C
:1010A000F510000871100008711000087110000898
:1010B000711000080112000825110008E311000852
:1010C0007110000871100008231200087110000848
:1010D000251100087110000871100008EB110008BC
:1010E0000B681A1D1B680A6004F1420684F842303E
:1010F0000123A3E0256808682E0600F104030AD541
:1011000005680B60002D03DA2D236D4284F843300F
:101110005E480A2319E015F0400F05680B6018BF00
:101120002DB2EFE70B682568181D0860280601D569
:101130001D6802E06906FBD51D8854486F2F0CBF5F
:1011400008230A23002184F843106668A660002E55
:10115000A2BF216821F0040121600DB9002E4DD0FD
:101160001646B5FBF3F103FB1157C75D06F8017D89
:101170002F46BB420D46F4D9082B0BD12368DF075D
:1011800008D5236961689942DEBF302306F8013C27
:1011900006F1FF36921B2261CDF800A04B4603AA50
:1011A00021464046FFF7E2FE01304CD14FF0FF30C0
:1011B00004B0BDE8F087354884F8457023680E68B0
:1011C0001F0656F8045B0E6014D5D90744BF43F0E0
:1011D000200323601DB9236823F02003236010231C
:1011E000B0E7236843F0200323607823284884F87D
:1011F0004530E3E75E0648BFADB2E6E71646BBE71B
:101200000B68266860691D1D0D6035061B6801D5D9
:10121000186002E07106FBD5188000232361164692
:10122000BAE70B681A1D0A601E6862680021304622
:10123000FEF7D6FF08B1801B60606368236100235E
:1012400084F84330A8E72369324649464046D047F0
:101250000130ABD023689B0713D4E068039B98420E
:10126000B8BF1846A4E70123324649464046D04756
:1012700001309BD00135E36803995B1AAB42F2DC85
:10128000EBE7002504F11906F5E700BF3515000866
:10129000461500080A44914200F1FF3300D170471F
:1012A00010B511F8014B03F8014F9142F9D110BD6F
:1012B000884210B501EB020402D98442234607D8C4
:1012C000431EA14208D011F8012B03F8012FF8E7C3
:1012D000024401468A4200D110BD13F8014D02F8C4
:1012E000014DF7E737B5002948D051F8043C01908B
:1012F000002BA1F10404B8BFE41800F0D3F8204A91
:1013000001981368154633B96360146003B0BDE8F3
:10131000304000F0CDB8A3420BD921686218934247
:1013200004BF1A685B68636004BF521822602C60B7
:10133000ECE71A465B680BB1A342FAD9116855185D
:10134000A5420BD1246821445418A3421160DDD179
:101350001C685B68536021441160D7E702D90C23F5
:101360000360D3E7256861198B4204BF19685B6885
:10137000636004BF491921605460C7E703B030BD02
:101380008C000020F8B5CD1C25F0030508350C2D88
:1013900038BF0C25002D064601DBA94203D90C23DA
:1013A00033600020F8BD00F07DF821490A6814463A
:1013B0009CB9204F3B6823B92146304600F062F8C3
:1013C00038602946304600F05DF8431C23D10C23D9
:1013D0003360304600F06CF8E3E723685B1B17D4FA
:1013E0000B2B03D923601C44256004E06368A242F0
:1013F0000CBF0B605360304600F05AF804F10B004C
:10140000231D20F00700C21ACCD01B1AA350C9E735
:1014100022466468CCE7C41C24F00304A042E3D055
:10142000211A304600F02EF80130DDD1CFE700BFA1
:101430008C00002090000020F8B5074614460E46A8
:1014400021B9BDE8F8401146FFF79CBF22B9FFF76C
:1014500049FF25462846F8BD00F030F8A0420FD2DB
:1014600021463846FFF78EFF05460028F2D0314668
:101470002246FFF70FFF31463846FFF733FFE9E713
:101480003546E7E738B5064D0023044608462B608D
:1014900000F01EF8431C02D12B6803B1236038BD55
:1014A00064010020014800F011B800BF6C01002069
:1014B000014800F00CB800BF6C01002051F8043C5A
:1014C000181F002BBCBF0B58C018704770477047DF
:1014D000044B1968024609B90349196018680244A7
:1014E0001A6070479400002078010020F8B500BF12
:1014F000F8BC08BC9E467047F8B500BFF8BC08BCF5
:041500009E4670474C
:10150400256400000D0A000000640240050000008C
:10151400000100209C00002002540000020700008B
:10152400232D302B2000686C4C00656667454647C8
:10153400003031323334353637383941424344454B
:1015440046003031323334353637383961626364BA
:0415540065660000C8
:04155800C5010008C1
:04155C00A1010008E1
:1015600000000240000402400C00002000000000C7
:10157000000000000000000000000000000000006B
:10158000000000000000000000000000000000005B
:10159000000000000000000000000000000000004B
:1015A000000000000000000000000000000000003B
:1015B000000000000000000000000000000000002B
:0C15C0000000000000000000000000001F
:0400000508000BD90B
:00000001FF
